:100000000EC028C027C026C025C024C023C022C0DF
:1000100021C020C01FC01EC01DC01CC01BC0112499
:100020001FBECFE5D2E0DEBFCDBF10E0A0E6B0E05E
:10003000E6E9FEE002C005900D92A838B107D9F7B5
:1000400020E0A8E8B0E001C01D92A439B207E1F7B2
:1000500055D11FC7D5CFFC018081FB019081891B41
:10006000990B08951F93CF93DF93182FD62FC42F8A
:10007000812F29D28111FCCF8D2F17D28C2F15D231
:10008000DF91CF911F91FBC1CF93DF93C82FD62F64
:100090008C2F19D2882339F08FEC97E00197F1F774
:1000A00000C00000F5CF8D2F00D2E9D181E08C0F88
:1000B0000AD281E03BD2C82FE2D18C2FDF91CF91C1
:1000C00008950F931F93CF93DF93CDB7DEB7649757
:1000D0000FB6F894DEBF0FBECDBF1FE7181B1E374B
:1000E00008F01FEF80919100811721F0412F60E10E
:1000F00080E9B8DF10939100812F817090E065E076
:1001000070E02AD29F938F931695412F50E051951E
:10011000419551095F934F9380E690E09F938F93B1
:100120008E010F5F1F4F1F930F93CED3B80182E054
:100130003DD10FB6F894DEBF0FBECDBF64960FB6AB
:10014000F894DEBF0FBECDBFDF91CF911F910F910D
:100150000895E8E8F0E088E0369A369910C08150BA
:1001600031968111F9CF2BE230E041E050E068E0B8
:1001700070E088E890E048D280918C00089595B1B5
:1001800096959083EACF8091900080FF04C040E173
:100190006AE080E967DF44E061E080E963DF4CE327
:1001A0008091920080FD4CE780919000982F969569
:1001B0009370913009F44EC0933009F44EC04C7FD7
:1001C0008695869586958370813009F448C0823083
:1001D00009F44AC04C6362E080E944DF80919200F8
:1001E00044E080FF40E064E080E93CDF4091900023
:1001F0008091920086958670407E482B67E080E96A
:1002000031DF40E868E080E92DDF48E169E080E91E
:1002100029DF40E36BE080E925DF409192004295C1
:100220004F7009F445E0842F8295807F482B6CE065
:1002300080E918DF40E26DE080E914DF4FE06FE015
:1002400080E910DF8091920040E881FF40E065E2A4
:1002500080E908CF4C7F4160B3CF4360B1CF437F8B
:1002600044604F7C4061B7CF437CB5CFCF9362E110
:1002700080E40ADFC82F63E180E406DF90919000FC
:100280009C1304C090919200981731F0C093900095
:1002900080939200CF9177CFCF910895BC98C49866
:1002A00016B817B83D9A3898399A3A983B983E98BC
:1002B0003F983798329A319A309A379AB9D08FEC62
:1002C00097E00197F1F700C0000040E26AE080E4A7
:1002D000C9DE8FEC97E00197F1F700C000004FEF07
:1002E0006CE080E4BFDE4FEF6DE080E4BBDE8FE1C9
:1002F0009EE40197F1F700C00000B8CFB99AC19809
:100300002FEF8EE994E2215080409040E1F700C049
:100310000000C19AC3DF6CD062E770E081E046D094
:1003200032DFC0E016DFCDDE8FE59AEE0197F1F700
:1003300000C00000CA3011F499DFC0E0CF5FF2CFF7
:10034000CF93C82F8EE490E0E0D08C2FAED0CF9129
:1003500096C0CF93C82F8460F3DF87EE93E00197B8
:10036000F1F700C000008C2F8B7FEADF87EE93E06F
:100370000197F1F700C00000CF910895CF93C82FE7
:10038000DFDF8C2FCF91E5CFCF93DF93C82FD62F10
:10039000807F862BF3DF8C2F8295807F8D2BDF91E2
:1003A000CF91ECCF68E0F0CF69E0EECF0F931F93D1
:1003B000CF93DF93162F072F813061F480E8F2DFAF
:1003C000C12FD02F8991811111C0DF91CF911F9141
:1003D0000F910895823011F480ECF1CF833011F445
:1003E00084E9EDCF843061F784EDE9CFDDDFEACF3A
:1003F0002FE788E391E0215080409040E1F700C072
:10040000000080E3BBDF80E3B9DF80E3B7DF80E299
:10041000B5DF8CE2C7DF8CE0C5DF81E0C3DF86E0BB
:10042000C1DF8FE39CE90197F1F700C00000089558
:10043000C09AC29ABA9AB89A8FEF8FB98AE28DB9E8
:1004400080EF8EB908958091930008958EB98BE264
:100450009CE09A95F1F700C08DB9B29BFECF9AE06F
:100460009A95F1F700C08DB9769BF2CF8CE08A9512
:10047000F1F700C08FB19FEF9FB9B89A0895C09867
:10048000C29AB29BFECF8AE08A95F1F700C0C09A6B
:100490008CE08A95F1F700C0759905C084E08093DF
:1004A000930081E0089580E00895B89AC2988FB9CA
:1004B00080EFCCDFB8988EEFC9DF882319F092E087
:1004C000909393000895C29AC29BFECF9CE09A95A8
:1004D000F1F700C0C0989AE09A95F1F700C0C29871
:1004E0009AE09A95F1F700C0C09A779905C083E029
:1004F0008093930081E00895D8DF811104C081E0EA
:1005000080939300089580E00895CF93C82FDBDF98
:10051000813049F4B4DF8FE19EE40197F1F700C028
:1005200000008C2FF2DF80E0CF910895CF93DF930E
:10053000D82FB898C2981FB880EF88DFC82FB89A14
:10054000D11107C01FB88EEF81DF8C2FDF91CF91C3
:1005500008958FEF8FB9F7CF0024552704C0080EF8
:10056000591F880F991F009729F076956795B8F362
:100570007105B9F7802D952F0895CF93DF93DC0196
:100580002D91FB013191EC013883EB01288341501F
:100590005109CD01BF01141615068CF3DF91CF91DF
:1005A0000895B0E0A0E0E6EDF2E046C46C01D62F7D
:1005B000C72F8A017901F9010995B80197FF14C085
:1005C0008D2F9C2FF701099597FD08C0B801C60132
:1005D000F701099597FD15C0DC2DCD2D8D2F9C2F92
:1005E000CDB7DEB7E8E044C48D2F9C2FF701099505
:1005F000181619069CF3B801C601F701099597FD75
:10060000EBCFD02FC12FEACFA8E0B0E0E9E0F3E0D4
:1006100009C48C016B0158874F8359019A013195A8
:10062000219531093E832D838F819885800F911FFD
:100630009A83898397E0C916D10458F569807A8036
:10064000C6016F81788588DF4801880E991E68147D
:10065000790418F02896E2E101C4730112C0670121
:100660002F813885C21AD30AB701C601F501099551
:10067000181619064CF44F815885B601C7017DDF65
:1006800076010E151F0558F3EF81F8856E0E7F1E5B
:10069000DECFC601969587956F8178855DDF38013D
:1006A000680E791EC60101976F81788555DF780144
:1006B000E80EF91EF7E0CF16D104C9F1C7012801F1
:1006C00029E2C216D10468F1C60123E09695879508
:1006D0002A95E1F76F8178853FDF4C011C01220CE0
:1006E000331CA801420D531DB801680F791F9501F5
:1006F000C80157DF2C01A301480D591D9194819425
:1007000091089501B301C301880D991D4ADF3C0191
:10071000B701680D791D9501A701C70182199309D9
:1007200040DF9501AC01B301C2013BDF3C014F81C9
:100730005885B301C80121DF69807A804301170120
:1007400023011A821982E814F90408F447C0B80199
:10075000C401F50109951816190644F1892B69F4AD
:100760004F815885B401C20108DF8F819885480EFA
:10077000591EE1E0F0E0FA83E9832F813885820E8B
:10078000931EE1CF892B69F44F815885B101C701D0
:10079000F4DE2D813E81220E331E81E090E09A83AB
:1007A0008983EB80FC80E814F904C0F0B801C7012C
:1007B000F50109952D813E812E0D3F1D3C832B8334
:1007C00097FFE0CF4F815885B701C401D6DEEB809B
:1007D000FC8081E090E09A838983CFCFC6016F814E
:1007E0007885BADE800F911F9C838B83E981FA8123
:1007F000EF2B11F52B813C816216730608F02ACF8E
:10080000730112C067018F819885C81AD90AB70190
:10081000C601F5010995181619064CF44F81588543
:10082000B601C701AADE76010E151F0558F32F8108
:100830003885620E731EDECF6401C418D508A2018C
:10084000401B510BC416D5060CF4A6011416150650
:100850002CF4B401641B750BC8018FDEC1018E1925
:100860009F097C014B815C8142195309EF81F88516
:100870004E1B5F0B8417950708F4AC011416150680
:1008800034F46B817C81641B750BC40176DE2F818F
:1008900038852C153D0540F4C601B901AFD295014C
:1008A0004F815885C801B0DE8F8198858E159F05D0
:1008B00008F0D0CE0B811C810E191F09C7016F8172
:1008C00078859CD26B01B0CEAEE0B0E0E9E6F4E012
:1008D000B7C20D891E8986E08C831A8309838FEF46
:1008E0009FE79E838D83AE01475E5F4F6F89788D52
:1008F000CE01019609D02F813885020F131FF80110
:1009000010822E96E4E0B8C2ABE0B0E0E9E8F4E093
:1009100089C27C013B018A01FC0117821682838116
:1009200081FFBAC1CE0101965C01F7019381F30109
:1009300093FD859193FF81913F01882309F449C17B
:10094000853239F493FD859193FF81913F01853282
:1009500021F4B70190E0B9D1E8CF912C212C312CB2
:10096000FFE1F31538F08B3211F190F4803209F188
:10097000833229F137FC3CC020ED280F2A3050F596
:1009800036FE20C0892D6AE030D2922E980E06C025
:100990008D3291F0803371F7689430F8F30193FD54
:1009A000859193FF81913F018111DACF21C0689435
:1009B00031F8689432F8F2CF689433F8EFCF689446
:1009C00034F8ECCF822D6AE010D2222E280E6894E3
:1009D00035F8E4CF8E3229F436FCFBC0689436F843
:1009E000DDCF8C3619F4689437F8D8CF8836B1F259
:1009F000982F9F7D95549330D8F0833691F18337AB
:100A0000B1F1833509F05EC02801F2E04F0E511CB0
:100A1000F801C080D180692D70E036FC02C06FEF14
:100A20007FEFC6013CD14C01689437F882010AC0BF
:100A30000C5F1F4F2FE3298388248394912C650139
:100A4000E89437F833FE2AC0522C8114910459F5EA
:100A5000552009F46ACFB70180E290E036D15A946C
:100A6000F7CFF801808189830E5F1F4FE5CF280102
:100A7000F2E04F0E511CF801C080D180692D70E06A
:100A800036FC02C06FEF7FEFC60114D14C0182012A
:100A9000D7CFB70180E290E018D12A942814190426
:100AA00009F0B8F7D1CFF60137FC859137FE819177
:100AB0006F01B70190E009D151105A94F1E08F1AFB
:100AC0009108C3CF843619F0893609F073C0F80154
:100AD00037FE67C060817181828193810C5F1F4FF7
:100AE000F32DFF763F2E97FF09C090958095709566
:100AF00061957F4F8F4F9F4F689437F82AE030E021
:100B0000A50113D1C82ECA18DC2C832C36FE0CC0CC
:100B1000E89480F8C91440F434FE05C032FC03C0E8
:100B2000F32DFE7E8F2ED92C84FE90C0FE01EC0D9D
:100B3000F11D8081803309F082C0282D297E822E0C
:100B4000882D8870582E83FC8FC080FE89C09C2C15
:100B5000D21418F42C0C922C9D1884FE8BC0B70173
:100B600080E390E0B2D082FE08C088E790E081FE8A
:100B700002C088E590E0B701A8D0C91408F486C087
:100B8000CA94D12C9FEFC91AD90ACA0CDB1CF601F2
:100B900082916F01B70190E098D0AC14BD04B9F711
:100BA00057CF60817181072E000C880B990B0E5F67
:100BB0001F4F96CFD32CE894D4F82AE030E0853745
:100BC00031F1232D297FD22E8F36F9F040F488356C
:100BD000A1F0F701868197812B96E2E13FC1803732
:100BE00049F08837B1F7D4FE02C06894D2F820E10A
:100BF00030E00DC06894D4F8F6CF34FE03C0822FE5
:100C00008660D82E20E132E002C028E030E0F80112
:100C1000D7FE0EC060817181828193810C5F1F4F6E
:100C2000A50183D0C82ECA183D2CE89437F86CCFA4
:100C30006081718190E080E00E5F1F4FF1CF82FCF8
:100C400002C0D3947DCFD394D3947ACF882D867865
:100C500009F476CFF6CFB70180E290E036D0D39496
:100C6000D214C8F3512C79CF522C5D18D21408F449
:100C700074CFF8CF882D867809F47FCF8BE281FE80
:100C800080E287FC8DE2B70190E076CFB70180E388
:100C900090E01BD09A9471CF8FEF9FEF9DCFFC0116
:100CA0000590615070400110D8F7809590958E0F97
:100CB0009F1F0895FC016150704001900110D8F70A
:100CC000809590958E0F9F1F08950F931F93CF933C
:100CD000DF93182F092FEB018B8181FD09C01FEFD6
:100CE0000FEF812F902FDF91CF911F910F910895DA
:100CF00082FF14C02E813F818C819D812817390786
:100D00003CF4E881F981CF010196998388831083AF
:100D10008E819F8101969F838E83E3CFE885F9853D
:100D2000812F0995892BA1F3DACFFA01AA27283060
:100D300061F1203191F1E8946F936E7F6E5F7F4F88
:100D40008F4F9F4FAF4FB1E040D0B4E03ED0670F20
:100D5000781F891F9A1FA11D680F791F8A1F911D77
:100D6000A11D6A0F711D811D911DA11D22D009F4C5
:100D700068943F91062E000C3019000C000C3019BD
:100D8000305D3193CEF6CF010895462F4770405D18
:100D90004193B3E00FD0C9F7F6CF462F4F70405DB7
:100DA0004A3318F0495D31FD4052419302D0A9F712
:100DB000EACFB4E0A6959795879577956795BA950C
:100DC000C9F700976105710508959B01AC010A2ED2
:100DD00006945795479537952795BA95C9F7620FA9
:100DE000731F841F951FA01D0895002480FD060E0B
:100DF000660F11F08695D1F7802D0895AA1BBB1BB5
:100E000051E107C0AA1FBB1FA617B70710F0A61B0A
:100E1000B70B881F991F5A95A9F780959095BC012B
:100E2000CD0108952F923F924F925F926F927F92E1
:100E30008F929F92AF92BF92CF92DF92EF92FF92EA
:100E40000F931F93CF93DF93CDB7DEB7CA1BDB0B96
:100E50000FB6F894DEBF0FBECDBF09942A8839883B
:100E600048885F846E847D848C849B84AA84B98442
:100E7000C884DF80EE80FD800C811B81AA81B9814E
:100E8000CE0FD11D0FB6F894DEBF0FBECDBFED0162
:060E90000895F894FFCF65
:100E9600566F6C756D65202534642E25303164647B
:100EA600620042756666616C6F203353452050724E
:080EB6006F20393033380000D1
:00000001FF
