:100000000EC01DC01CC01BC01AC019C018C017C02C
:1000100016C015C014C013C012C011C010C01124E6
:100020001FBECFE5D2E0DEBFCDBF20E0A0E6B0E04E
:1000300001C01D92AC36B207E1F71FD1CEC3E0CFAD
:10004000FC018081FB019081891B990B08951F930E
:10005000CF93DF93182FD62FC42F812F74D1811106
:10006000FCCF8D2F62D18C2F60D1DF91CF911F916A
:1000700047C1CF93DF93C82FD62F8C2F64D188230D
:1000800039F08FEC97E00197F1F700C00000F5CF51
:100090008D2F4BD135D181E08C0F55D181E084D1AA
:1000A000C82F2ED18C2FDF91CF910895CF93CFE71A
:1000B000C81BCE3708F0CFEF809169008C1721F074
:1000C0004C2F60E180E9C3DFC0936900CF910895B0
:1000D000E0E6F0E088E0369A369910C0815031961B
:1000E0008111F9CF20E230E041E050E068E070E0BB
:1000F00080E690E0B6D180916400089595B1969520
:100100009083EACF8091680080FF04C040E16AE0FC
:1001100080E99DDF44E061E080E999DF4CE3809174
:100120006A0080FD4CE780916800982F9695937047
:10013000913009F44EC0933009F44EC04C7F86953F
:10014000869586958370813009F448C0823009F421
:100150004AC04C6362E080E97ADF80916A0044E043
:1001600080FF40E064E080E972DF409168008091A8
:100170006A0086958670407E482B67E080E967DFDD
:1001800040E868E080E963DF48E169E080E95FDF3B
:1001900040E36BE080E95BDF40916A0042954F707D
:1001A00009F445E0842F8295807F482B6CE080E93C
:1001B0004EDF40E26DE080E94ADF4FE06FE080E92A
:1001C00046DF80916A0040E881FF40E065E280E917
:1001D0003ECF4C7F4160B3CF4360B1CF437F44609B
:1001E0004F7C4061B7CF437CB5CFCF9362E180E4D1
:1001F00040DFC82F63E180E43CDF909168009C13EE
:1002000004C090916A00981731F0C0936800809301
:100210006A00CF9177CFCF910895BC98C49816B853
:1002200017B83D9A3898399A3A983B983E983F9833
:100230003798329A319A309A379A3CD08FEC97E0BF
:100240000197F1F700C0000040E26AE080E4FFDEC1
:100250008FEC97E00197F1F700C000004FEF6CE0E2
:1002600080E4F5DE4FEF6DE080E4F1DE8FE19EE4A7
:100270000197F1F700C00000B8CFB99AC1982FEFED
:100280008EE994E2215080409040E1F700C00000E8
:10029000C19AC3DF37DFC0E01BDF08DF8FE59AEECE
:1002A0000197F1F700C00000CA3011F49EDFC0E0F2
:1002B000CF5FF2CFC09AC29ABA9AB89A8FEF8FB92D
:1002C0008AE28DB980EF8EB9089580916B00089510
:1002D0008EB98BE293E09A95F1F700C08DB9B29B8D
:1002E000FECF00C000C000008DB9769BF3CF83E045
:1002F0008A95F1F700C08FB19FEF9FB9B89A089522
:10030000C098C29AB29BFECF00C000C00000C09A45
:1003100083E08A95F1F700C0759905C084E0809369
:100320006B0081E0089580E00895B89AC2988FB973
:1003300080EFCEDFB8988EEFCBDF882319F092E004
:1003400090936B000895C29AC29BFECF93E09A955A
:10035000F1F700C0C09800C000C00000C29800C003
:1003600000C00000C09A779905C083E080936B00BD
:1003700081E00895DADF811104C081E080936B0091
:10038000089580E00895CF93C82FDDDF813049F4D0
:10039000B7DF8FE19EE40197F1F700C000008C2FDA
:1003A000F2DF80E0CF910895CF93DF93D82FB898F4
:1003B000C2981FB880EF8CDFC82FB89AD11107C040
:1003C0001FB88EEF85DF8C2FDF91CF9108958FEFCF
:1003D0008FB9F7CFCF93DF93DC012D91FB013191E2
:1003E000EC013883EB01288341505109CD01BF0155
:1003F000141615068CF3DF91CF910895B0E0A0E0BC
:10040000E3E0F2E0BDC16C01D62FC72F8A0179016C
:10041000F9010995B80197FF14C08D2F9C2FF701A2
:10042000099597FD08C0B801C601F701099597FD28
:1004300015C0DC2DCD2D8D2F9C2FCDB7DEB7E8E07C
:10044000BBC18D2F9C2FF7010995181619069CF337
:10045000B801C601F701099597FDEBCFD02FC12F49
:10046000EACFA8E0B0E0E6E3F2E080C18C016B01E6
:1004700058874F8359019A013195219531093E835F
:100480002D838F819885800F911F9A83898397E0B0
:10049000C916D10458F569807A80C6016F817885C4
:1004A00040D14801880E991E6814790418F02896E6
:1004B000E2E178C1730112C067012F813885C21A49
:1004C000D30AB701C601F5010995181619064CF4AF
:1004D0004F815885B601C7017DDF76010E151F05D6
:1004E00058F3EF81F8856E0E7F1EDECFC60196951C
:1004F00087956F81788515D13801680E791EC60100
:1005000001976F8178850DD17801E80EF91EF7E02B
:10051000CF16D104C9F1C701280129E2C216D104BE
:1005200068F1C60123E0969587952A95E1F76F81DA
:100530007885F7D04C011C01220C331CA801420D18
:10054000531DB801680F791F9501C80157DF2C01B1
:10055000A301480D591D9194819491089501B3010F
:10056000C301880D991D4ADF3C01B701680D791D53
:100570009501A701C7018219930940DF9501AC01DC
:10058000B301C2013BDF3C014F815885B301C80173
:1005900021DF69807A804301170123011A821982C1
:1005A000E814F90408F447C0B801C401F50109953D
:1005B0001816190644F1892B69F44F815885B40146
:1005C000C20108DF8F819885480E591EE1E0F0E0F6
:1005D000FA83E9832F813885820E931EE1CF892B20
:1005E00069F44F815885B101C701F4DE2D813E8148
:1005F000220E331E81E090E09A838983EB80FC8099
:10060000E814F904C0F0B801C701F50109952D817E
:100610003E812E0D3F1D3C832B8397FFE0CF4F8102
:100620005885B701C401D6DEEB80FC8081E090E004
:100630009A838983CFCFC6016F81788572D0800F6E
:10064000911F9C838B83E981FA81EF2B11F52B811C
:100650003C816216730608F02ACF730112C067014D
:100660008F819885C81AD90AB701C601F501099585
:10067000181619064CF44F815885B601C701AADE39
:1006800076010E151F0558F32F813885620E731EF3
:10069000DECF6401C418D508A201401B510BC4165B
:1006A000D5060CF4A601141615062CF4B401641B2F
:1006B000750BC8018FDEC1018E199F097C014B812A
:1006C0005C8142195309EF81F8854E1B5F0B84173B
:1006D000950708F4AC011416150634F46B817C817F
:1006E000641B750BC40176DE2F8138852C153D0502
:1006F00040F4C601B90126D095014F815885C80143
:10070000B0DE8F8198858E159F0508F0D0CE0B81C5
:100710001C810E191F09C7016F81788513D06B01E9
:10072000B0CE0024552704C0080E591F880F991F0A
:10073000009729F076956795B8F37105B9F7802D84
:10074000952F0895AA1BBB1B51E107C0AA1FBB1F11
:10075000A617B70710F0A61BB70B881F991F5A954D
:10076000A9F780959095BC01CD0108952F923F92F5
:100770004F925F926F927F928F929F92AF92BF92B1
:10078000CF92DF92EF92FF920F931F93CF93DF935D
:10079000CDB7DEB7CA1BDB0B0FB6F894DEBF0FBEBA
:1007A000CDBF09942A88398848885F846E847D8407
:1007B0008C849B84AA84B984C884DF80EE80FD8009
:1007C0000C811B81AA81B981CE0FD11D0FB6F8947F
:0E07D000DEBF0FBECDBFED010895F894FFCF40
:00000001FF
